{
    "_format": "hh-sol-artifact-1",
    "contractName": "StrangerStrains",
    "sourceName": "contracts/StrangerStrains.sol",
    "abi": [
        {
            "inputs": [
                {
                    "internalType": "string",
                    "name": "_tokenName",
                    "type": "string"
                },
                {
                    "internalType": "string",
                    "name": "_tokenSymbol",
                    "type": "string"
                }
            ],
            "stateMutability": "nonpayable",
            "type": "constructor"
        },
        {
            "inputs": [
                {
                    "internalType": "address",
                    "name": "operator",
                    "type": "address"
                }
            ],
            "name": "OperatorNotAllowed",
            "type": "error"
        },
        {
            "anonymous": false,
            "inputs": [
                {
                    "indexed": true,
                    "internalType": "address",
                    "name": "account",
                    "type": "address"
                },
                {
                    "indexed": true,
                    "internalType": "address",
                    "name": "operator",
                    "type": "address"
                },
                {
                    "indexed": false,
                    "internalType": "bool",
                    "name": "approved",
                    "type": "bool"
                }
            ],
            "name": "ApprovalForAll",
            "type": "event"
        },
        {
            "anonymous": false,
            "inputs": [
                {
                    "indexed": true,
                    "internalType": "address",
                    "name": "previousOwner",
                    "type": "address"
                },
                {
                    "indexed": true,
                    "internalType": "address",
                    "name": "newOwner",
                    "type": "address"
                }
            ],
            "name": "OwnershipTransferred",
            "type": "event"
        },
        {
            "anonymous": false,
            "inputs": [
                {
                    "indexed": true,
                    "internalType": "address",
                    "name": "operator",
                    "type": "address"
                },
                {
                    "indexed": true,
                    "internalType": "address",
                    "name": "from",
                    "type": "address"
                },
                {
                    "indexed": true,
                    "internalType": "address",
                    "name": "to",
                    "type": "address"
                },
                {
                    "indexed": false,
                    "internalType": "uint256[]",
                    "name": "ids",
                    "type": "uint256[]"
                },
                {
                    "indexed": false,
                    "internalType": "uint256[]",
                    "name": "values",
                    "type": "uint256[]"
                }
            ],
            "name": "TransferBatch",
            "type": "event"
        },
        {
            "anonymous": false,
            "inputs": [
                {
                    "indexed": true,
                    "internalType": "address",
                    "name": "operator",
                    "type": "address"
                },
                {
                    "indexed": true,
                    "internalType": "address",
                    "name": "from",
                    "type": "address"
                },
                {
                    "indexed": true,
                    "internalType": "address",
                    "name": "to",
                    "type": "address"
                },
                {
                    "indexed": false,
                    "internalType": "uint256",
                    "name": "id",
                    "type": "uint256"
                },
                {
                    "indexed": false,
                    "internalType": "uint256",
                    "name": "value",
                    "type": "uint256"
                }
            ],
            "name": "TransferSingle",
            "type": "event"
        },
        {
            "anonymous": false,
            "inputs": [
                {
                    "indexed": false,
                    "internalType": "string",
                    "name": "value",
                    "type": "string"
                },
                {
                    "indexed": true,
                    "internalType": "uint256",
                    "name": "id",
                    "type": "uint256"
                }
            ],
            "name": "URI",
            "type": "event"
        },
        {
            "inputs": [
                {
                    "internalType": "string",
                    "name": "_name",
                    "type": "string"
                },
                {
                    "internalType": "string",
                    "name": "_uri",
                    "type": "string"
                },
                {
                    "internalType": "uint256",
                    "name": "_maxSupply",
                    "type": "uint256"
                },
                {
                    "internalType": "uint256",
                    "name": "_mintPrice",
                    "type": "uint256"
                }
            ],
            "name": "addStrain",
            "outputs": [],
            "stateMutability": "nonpayable",
            "type": "function"
        },
        {
            "inputs": [
                {
                    "internalType": "address",
                    "name": "account",
                    "type": "address"
                },
                {
                    "internalType": "uint256",
                    "name": "id",
                    "type": "uint256"
                }
            ],
            "name": "balanceOf",
            "outputs": [
                {
                    "internalType": "uint256",
                    "name": "",
                    "type": "uint256"
                }
            ],
            "stateMutability": "view",
            "type": "function"
        },
        {
            "inputs": [
                {
                    "internalType": "address[]",
                    "name": "accounts",
                    "type": "address[]"
                },
                {
                    "internalType": "uint256[]",
                    "name": "ids",
                    "type": "uint256[]"
                }
            ],
            "name": "balanceOfBatch",
            "outputs": [
                {
                    "internalType": "uint256[]",
                    "name": "",
                    "type": "uint256[]"
                }
            ],
            "stateMutability": "view",
            "type": "function"
        },
        {
            "inputs": [
                {
                    "internalType": "uint256",
                    "name": "_id",
                    "type": "uint256"
                },
                {
                    "internalType": "uint256",
                    "name": "_amount",
                    "type": "uint256"
                }
            ],
            "name": "burn",
            "outputs": [],
            "stateMutability": "nonpayable",
            "type": "function"
        },
        {
            "inputs": [
                {
                    "internalType": "address",
                    "name": "account",
                    "type": "address"
                },
                {
                    "internalType": "address",
                    "name": "operator",
                    "type": "address"
                }
            ],
            "name": "isApprovedForAll",
            "outputs": [
                {
                    "internalType": "bool",
                    "name": "",
                    "type": "bool"
                }
            ],
            "stateMutability": "view",
            "type": "function"
        },
        {
            "inputs": [
                {
                    "internalType": "uint256",
                    "name": "_id",
                    "type": "uint256"
                }
            ],
            "name": "mint",
            "outputs": [],
            "stateMutability": "payable",
            "type": "function"
        },
        {
            "inputs": [],
            "name": "name",
            "outputs": [
                {
                    "internalType": "string",
                    "name": "",
                    "type": "string"
                }
            ],
            "stateMutability": "view",
            "type": "function"
        },
        {
            "inputs": [],
            "name": "owner",
            "outputs": [
                {
                    "internalType": "address",
                    "name": "",
                    "type": "address"
                }
            ],
            "stateMutability": "view",
            "type": "function"
        },
        {
            "inputs": [],
            "name": "paused",
            "outputs": [
                {
                    "internalType": "bool",
                    "name": "",
                    "type": "bool"
                }
            ],
            "stateMutability": "view",
            "type": "function"
        },
        {
            "inputs": [],
            "name": "renounceOwnership",
            "outputs": [],
            "stateMutability": "nonpayable",
            "type": "function"
        },
        {
            "inputs": [
                {
                    "internalType": "address",
                    "name": "from",
                    "type": "address"
                },
                {
                    "internalType": "address",
                    "name": "to",
                    "type": "address"
                },
                {
                    "internalType": "uint256[]",
                    "name": "ids",
                    "type": "uint256[]"
                },
                {
                    "internalType": "uint256[]",
                    "name": "amounts",
                    "type": "uint256[]"
                },
                {
                    "internalType": "bytes",
                    "name": "data",
                    "type": "bytes"
                }
            ],
            "name": "safeBatchTransferFrom",
            "outputs": [],
            "stateMutability": "nonpayable",
            "type": "function"
        },
        {
            "inputs": [
                {
                    "internalType": "address",
                    "name": "from",
                    "type": "address"
                },
                {
                    "internalType": "address",
                    "name": "to",
                    "type": "address"
                },
                {
                    "internalType": "uint256",
                    "name": "tokenId",
                    "type": "uint256"
                },
                {
                    "internalType": "uint256",
                    "name": "amount",
                    "type": "uint256"
                },
                {
                    "internalType": "bytes",
                    "name": "data",
                    "type": "bytes"
                }
            ],
            "name": "safeTransferFrom",
            "outputs": [],
            "stateMutability": "nonpayable",
            "type": "function"
        },
        {
            "inputs": [
                {
                    "internalType": "address",
                    "name": "operator",
                    "type": "address"
                },
                {
                    "internalType": "bool",
                    "name": "approved",
                    "type": "bool"
                }
            ],
            "name": "setApprovalForAll",
            "outputs": [],
            "stateMutability": "nonpayable",
            "type": "function"
        },
        {
            "inputs": [
                {
                    "internalType": "uint256",
                    "name": "_id",
                    "type": "uint256"
                },
                {
                    "internalType": "uint256",
                    "name": "_newPrice",
                    "type": "uint256"
                }
            ],
            "name": "setCost",
            "outputs": [],
            "stateMutability": "nonpayable",
            "type": "function"
        },
        {
            "inputs": [
                {
                    "internalType": "bool",
                    "name": "_state",
                    "type": "bool"
                }
            ],
            "name": "setPaused",
            "outputs": [],
            "stateMutability": "nonpayable",
            "type": "function"
        },
        {
            "inputs": [
                {
                    "internalType": "uint256",
                    "name": "_id",
                    "type": "uint256"
                },
                {
                    "internalType": "string",
                    "name": "_newUri",
                    "type": "string"
                }
            ],
            "name": "setURI",
            "outputs": [],
            "stateMutability": "nonpayable",
            "type": "function"
        },
        {
            "inputs": [],
            "name": "strainCount",
            "outputs": [
                {
                    "internalType": "uint256",
                    "name": "",
                    "type": "uint256"
                }
            ],
            "stateMutability": "view",
            "type": "function"
        },
        {
            "inputs": [
                {
                    "internalType": "uint256",
                    "name": "",
                    "type": "uint256"
                }
            ],
            "name": "strains",
            "outputs": [
                {
                    "internalType": "string",
                    "name": "name",
                    "type": "string"
                },
                {
                    "internalType": "string",
                    "name": "uri",
                    "type": "string"
                },
                {
                    "internalType": "uint256",
                    "name": "id",
                    "type": "uint256"
                },
                {
                    "internalType": "uint256",
                    "name": "maxSupply",
                    "type": "uint256"
                },
                {
                    "internalType": "uint256",
                    "name": "supply",
                    "type": "uint256"
                },
                {
                    "internalType": "uint256",
                    "name": "mintPrice",
                    "type": "uint256"
                }
            ],
            "stateMutability": "view",
            "type": "function"
        },
        {
            "inputs": [
                {
                    "internalType": "bytes4",
                    "name": "interfaceId",
                    "type": "bytes4"
                }
            ],
            "name": "supportsInterface",
            "outputs": [
                {
                    "internalType": "bool",
                    "name": "",
                    "type": "bool"
                }
            ],
            "stateMutability": "view",
            "type": "function"
        },
        {
            "inputs": [],
            "name": "symbol",
            "outputs": [
                {
                    "internalType": "string",
                    "name": "",
                    "type": "string"
                }
            ],
            "stateMutability": "view",
            "type": "function"
        },
        {
            "inputs": [],
            "name": "totalSupply",
            "outputs": [
                {
                    "internalType": "uint256",
                    "name": "",
                    "type": "uint256"
                }
            ],
            "stateMutability": "view",
            "type": "function"
        },
        {
            "inputs": [
                {
                    "internalType": "address",
                    "name": "newOwner",
                    "type": "address"
                }
            ],
            "name": "transferOwnership",
            "outputs": [],
            "stateMutability": "nonpayable",
            "type": "function"
        },
        {
            "inputs": [
                {
                    "internalType": "uint256",
                    "name": "_id",
                    "type": "uint256"
                }
            ],
            "name": "uri",
            "outputs": [
                {
                    "internalType": "string",
                    "name": "",
                    "type": "string"
                }
            ],
            "stateMutability": "view",
            "type": "function"
        },
        {
            "inputs": [],
            "name": "withdraw",
            "outputs": [],
            "stateMutability": "nonpayable",
            "type": "function"
        }
    ],
    "bytecode": "0x6080604052600060075560006008556001600960006101000a81548160ff0219169083151502179055503480156200003657600080fd5b5060405162004f2c38038062004f2c83398181016040528101906200005c919062000625565b733cc6cdda760b79bafa08df41ecfa224f810dceb66001604051806020016040528060008152506200009481620002ee60201b60201c565b50620000b5620000a96200030a60201b60201c565b6200031260201b60201c565b600160048190555060006daaeb6d7670e522a718067333cd4e73ffffffffffffffffffffffffffffffffffffffff163b1115620002b257801562000178576daaeb6d7670e522a718067333cd4e73ffffffffffffffffffffffffffffffffffffffff16637d3e3dbe30846040518363ffffffff1660e01b81526004016200013e929190620006ef565b600060405180830381600087803b1580156200015957600080fd5b505af11580156200016e573d6000803e3d6000fd5b50505050620002b1565b600073ffffffffffffffffffffffffffffffffffffffff168273ffffffffffffffffffffffffffffffffffffffff161462000232576daaeb6d7670e522a718067333cd4e73ffffffffffffffffffffffffffffffffffffffff1663a0af290330846040518363ffffffff1660e01b8152600401620001f8929190620006ef565b600060405180830381600087803b1580156200021357600080fd5b505af115801562000228573d6000803e3d6000fd5b50505050620002b0565b6daaeb6d7670e522a718067333cd4e73ffffffffffffffffffffffffffffffffffffffff16634420e486306040518263ffffffff1660e01b81526004016200027b91906200071c565b600060405180830381600087803b1580156200029657600080fd5b505af1158015620002ab573d6000803e3d6000fd5b505050505b5b5b50508160059080519060200190620002cc929190620003d8565b508060069080519060200190620002e5929190620003d8565b5050506200079d565b806002908051906020019062000306929190620003d8565b5050565b600033905090565b6000600360009054906101000a900473ffffffffffffffffffffffffffffffffffffffff16905081600360006101000a81548173ffffffffffffffffffffffffffffffffffffffff021916908373ffffffffffffffffffffffffffffffffffffffff1602179055508173ffffffffffffffffffffffffffffffffffffffff168173ffffffffffffffffffffffffffffffffffffffff167f8be0079c531659141344cd1fd0a4f28419497f9722a3daafe3b4186f6b6457e060405160405180910390a35050565b828054620003e69062000768565b90600052602060002090601f0160209004810192826200040a576000855562000456565b82601f106200042557805160ff191683800117855562000456565b8280016001018555821562000456579182015b828111156200045557825182559160200191906001019062000438565b5b50905062000465919062000469565b5090565b5b80821115620004845760008160009055506001016200046a565b5090565b6000604051905090565b600080fd5b600080fd5b600080fd5b600080fd5b6000601f19601f8301169050919050565b7f4e487b7100000000000000000000000000000000000000000000000000000000600052604160045260246000fd5b620004f182620004a6565b810181811067ffffffffffffffff82111715620005135762000512620004b7565b5b80604052505050565b60006200052862000488565b9050620005368282620004e6565b919050565b600067ffffffffffffffff821115620005595762000558620004b7565b5b6200056482620004a6565b9050602081019050919050565b60005b838110156200059157808201518184015260208101905062000574565b83811115620005a1576000848401525b50505050565b6000620005be620005b8846200053b565b6200051c565b905082815260208101848484011115620005dd57620005dc620004a1565b5b620005ea84828562000571565b509392505050565b600082601f8301126200060a57620006096200049c565b5b81516200061c848260208601620005a7565b91505092915050565b600080604083850312156200063f576200063e62000492565b5b600083015167ffffffffffffffff81111562000660576200065f62000497565b5b6200066e85828601620005f2565b925050602083015167ffffffffffffffff81111562000692576200069162000497565b5b620006a085828601620005f2565b9150509250929050565b600073ffffffffffffffffffffffffffffffffffffffff82169050919050565b6000620006d782620006aa565b9050919050565b620006e981620006ca565b82525050565b6000604082019050620007066000830185620006de565b620007156020830184620006de565b9392505050565b6000602082019050620007336000830184620006de565b92915050565b7f4e487b7100000000000000000000000000000000000000000000000000000000600052602260045260246000fd5b600060028204905060018216806200078157607f821691505b60208210810362000797576200079662000739565b5b50919050565b61477f80620007ad6000396000f3fe60806040526004361061014a5760003560e01c8063715018a6116100b6578063a22cb4651161006f578063a22cb46514610473578063b390c0ab1461049c578063e985e9c5146104c5578063edeed52214610502578063f242432a1461052d578063f2fde38b146105565761014a565b8063715018a6146103985780637696e088146103af578063862440e2146103d85780638da5cb5b1461040157806395d89b411461042c578063a0712d68146104575761014a565b806328d9dd441161010857806328d9dd44146102855780632eb2c2d6146102ae5780633ccfd60b146102d75780633eefcb35146102ee5780634e1273f4146103305780635c975abb1461036d5761014a565b8062fdd58e1461014f57806301ffc9a71461018c57806306fdde03146101c95780630e89341c146101f457806316c38b3c1461023157806318160ddd1461025a575b600080fd5b34801561015b57600080fd5b5061017660048036038101906101719190612cba565b61057f565b6040516101839190612d09565b60405180910390f35b34801561019857600080fd5b506101b360048036038101906101ae9190612d7c565b610647565b6040516101c09190612dc4565b60405180910390f35b3480156101d557600080fd5b506101de610729565b6040516101eb9190612e78565b60405180910390f35b34801561020057600080fd5b5061021b60048036038101906102169190612e9a565b6107b7565b6040516102289190612e78565b60405180910390f35b34801561023d57600080fd5b5061025860048036038101906102539190612ef3565b6108a7565b005b34801561026657600080fd5b5061026f6108cc565b60405161027c9190612d09565b60405180910390f35b34801561029157600080fd5b506102ac60048036038101906102a79190613055565b6108d2565b005b3480156102ba57600080fd5b506102d560048036038101906102d0919061325d565b6109e2565b005b3480156102e357600080fd5b506102ec610bca565b005b3480156102fa57600080fd5b5061031560048036038101906103109190612e9a565b610c62565b6040516103279695949392919061332c565b60405180910390f35b34801561033c57600080fd5b506103576004803603810190610352919061345e565b610dae565b6040516103649190613594565b60405180910390f35b34801561037957600080fd5b50610382610ec7565b60405161038f9190612dc4565b60405180910390f35b3480156103a457600080fd5b506103ad610eda565b005b3480156103bb57600080fd5b506103d660048036038101906103d191906135b6565b610eee565b005b3480156103e457600080fd5b506103ff60048036038101906103fa91906135f6565b610f5f565b005b34801561040d57600080fd5b50610416611018565b6040516104239190613661565b60405180910390f35b34801561043857600080fd5b50610441611042565b60405161044e9190612e78565b60405180910390f35b610471600480360381019061046c9190612e9a565b6110d0565b005b34801561047f57600080fd5b5061049a6004803603810190610495919061367c565b6112a8565b005b3480156104a857600080fd5b506104c360048036038101906104be91906135b6565b611487565b005b3480156104d157600080fd5b506104ec60048036038101906104e791906136bc565b611567565b6040516104f99190612dc4565b60405180910390f35b34801561050e57600080fd5b506105176115fb565b6040516105249190612d09565b60405180910390f35b34801561053957600080fd5b50610554600480360381019061054f91906136fc565b611601565b005b34801561056257600080fd5b5061057d60048036038101906105789190613793565b6117e9565b005b60008073ffffffffffffffffffffffffffffffffffffffff168373ffffffffffffffffffffffffffffffffffffffff16036105ef576040517f08c379a00000000000000000000000000000000000000000000000000000000081526004016105e690613832565b60405180910390fd5b60008083815260200190815260200160002060008473ffffffffffffffffffffffffffffffffffffffff1673ffffffffffffffffffffffffffffffffffffffff16815260200190815260200160002054905092915050565b60007fd9b67a26000000000000000000000000000000000000000000000000000000007bffffffffffffffffffffffffffffffffffffffffffffffffffffffff1916827bffffffffffffffffffffffffffffffffffffffffffffffffffffffff1916148061071257507f0e89341c000000000000000000000000000000000000000000000000000000007bffffffffffffffffffffffffffffffffffffffffffffffffffffffff1916827bffffffffffffffffffffffffffffffffffffffffffffffffffffffff1916145b8061072257506107218261186c565b5b9050919050565b6005805461073690613881565b80601f016020809104026020016040519081016040528092919081815260200182805461076290613881565b80156107af5780601f10610784576101008083540402835291602001916107af565b820191906000526020600020905b81548152906001019060200180831161079257829003601f168201915b505050505081565b60606107c2826118d6565b610801576040517f08c379a00000000000000000000000000000000000000000000000000000000081526004016107f890613924565b60405180910390fd5b600a6000838152602001908152602001600020600101805461082290613881565b80601f016020809104026020016040519081016040528092919081815260200182805461084e90613881565b801561089b5780601f106108705761010080835404028352916020019161089b565b820191906000526020600020905b81548152906001019060200180831161087e57829003601f168201915b50505050509050919050565b6108af6118f9565b80600960006101000a81548160ff02191690831515021790555050565b60085481565b6108da6118f9565b600760008154809291906108ed90613973565b919050555060006040518060c0016040528086815260200185815260200160075481526020018481526020016000815260200183815250905080600a600060075481526020019081526020016000206000820151816000019080519060200190610958929190612b6f565b506020820151816001019080519060200190610975929190612b6f565b5060408201518160020155606082015181600301556080820151816004015560a082015181600501559050506007547f6bb7ff708619ba0610cba295a58592e0451dee2622938c8755667688daf3529b856040516109d39190612e78565b60405180910390a25050505050565b8460006daaeb6d7670e522a718067333cd4e73ffffffffffffffffffffffffffffffffffffffff163b1115610bb4573373ffffffffffffffffffffffffffffffffffffffff168173ffffffffffffffffffffffffffffffffffffffff1603610a5657610a518686868686611977565b610bc2565b6daaeb6d7670e522a718067333cd4e73ffffffffffffffffffffffffffffffffffffffff1663c617113430336040518363ffffffff1660e01b8152600401610a9f9291906139bb565b602060405180830381865afa158015610abc573d6000803e3d6000fd5b505050506040513d601f19601f82011682018060405250810190610ae091906139f9565b8015610b7257506daaeb6d7670e522a718067333cd4e73ffffffffffffffffffffffffffffffffffffffff1663c617113430836040518363ffffffff1660e01b8152600401610b309291906139bb565b602060405180830381865afa158015610b4d573d6000803e3d6000fd5b505050506040513d601f19601f82011682018060405250810190610b7191906139f9565b5b610bb357336040517fede71dcc000000000000000000000000000000000000000000000000000000008152600401610baa9190613661565b60405180910390fd5b5b610bc18686868686611977565b5b505050505050565b610bd26118f9565b610bda611a18565b6000610be4611018565b73ffffffffffffffffffffffffffffffffffffffff1647604051610c0790613a57565b60006040518083038185875af1925050503d8060008114610c44576040519150601f19603f3d011682016040523d82523d6000602084013e610c49565b606091505b5050905080610c5757600080fd5b50610c60611a67565b565b600a602052806000526040600020600091509050806000018054610c8590613881565b80601f0160208091040260200160405190810160405280929190818152602001828054610cb190613881565b8015610cfe5780601f10610cd357610100808354040283529160200191610cfe565b820191906000526020600020905b815481529060010190602001808311610ce157829003601f168201915b505050505090806001018054610d1390613881565b80601f0160208091040260200160405190810160405280929190818152602001828054610d3f90613881565b8015610d8c5780601f10610d6157610100808354040283529160200191610d8c565b820191906000526020600020905b815481529060010190602001808311610d6f57829003601f168201915b5050505050908060020154908060030154908060040154908060050154905086565b60608151835114610df4576040517f08c379a0000000000000000000000000000000000000000000000000000000008152600401610deb90613ade565b60405180910390fd5b6000835167ffffffffffffffff811115610e1157610e10612f2a565b5b604051908082528060200260200182016040528015610e3f5781602001602082028036833780820191505090505b50905060005b8451811015610ebc57610e8c858281518110610e6457610e63613afe565b5b6020026020010151858381518110610e7f57610e7e613afe565b5b602002602001015161057f565b828281518110610e9f57610e9e613afe565b5b60200260200101818152505080610eb590613973565b9050610e45565b508091505092915050565b600960009054906101000a900460ff1681565b610ee26118f9565b610eec6000611a71565b565b610ef66118f9565b81610f00816118d6565b610f3f576040517f08c379a0000000000000000000000000000000000000000000000000000000008152600401610f3690613924565b60405180910390fd5b81600a600085815260200190815260200160002060050181905550505050565b610f676118f9565b81610f71816118d6565b610fb0576040517f08c379a0000000000000000000000000000000000000000000000000000000008152600401610fa790613924565b60405180910390fd5b81600a60008581526020019081526020016000206001019080519060200190610fda929190612b6f565b50827f6bb7ff708619ba0610cba295a58592e0451dee2622938c8755667688daf3529b8360405161100b9190612e78565b60405180910390a2505050565b6000600360009054906101000a900473ffffffffffffffffffffffffffffffffffffffff16905090565b6006805461104f90613881565b80601f016020809104026020016040519081016040528092919081815260200182805461107b90613881565b80156110c85780601f1061109d576101008083540402835291602001916110c8565b820191906000526020600020905b8154815290600101906020018083116110ab57829003601f168201915b505050505081565b806110da816118d6565b611119576040517f08c379a000000000000000000000000000000000000000000000000000000000815260040161111090613924565b60405180910390fd5b600960009054906101000a900460ff1615611169576040517f08c379a000000000000000000000000000000000000000000000000000000000815260040161116090613b79565b60405180910390fd5b600a6000838152602001908152602001600020600301546001600a6000858152602001908152602001600020600401546111a39190613b99565b11156111e4576040517f08c379a00000000000000000000000000000000000000000000000000000000081526004016111db90613c61565b60405180910390fd5b600a60008381526020019081526020016000206005015434101561123d576040517f08c379a000000000000000000000000000000000000000000000000000000000815260040161123490613ccd565b60405180910390fd5b600a6000838152602001908152602001600020600401600081548092919061126490613973565b91905055506008600081548092919061127c90613973565b91905055506112a461128c611b37565b83600160405180602001604052806000815250611b3f565b5050565b8160006daaeb6d7670e522a718067333cd4e73ffffffffffffffffffffffffffffffffffffffff163b1115611477573373ffffffffffffffffffffffffffffffffffffffff168173ffffffffffffffffffffffffffffffffffffffff1603611319576113148383611cef565b611482565b6daaeb6d7670e522a718067333cd4e73ffffffffffffffffffffffffffffffffffffffff1663c617113430336040518363ffffffff1660e01b81526004016113629291906139bb565b602060405180830381865afa15801561137f573d6000803e3d6000fd5b505050506040513d601f19601f820116820180604052508101906113a391906139f9565b801561143557506daaeb6d7670e522a718067333cd4e73ffffffffffffffffffffffffffffffffffffffff1663c617113430836040518363ffffffff1660e01b81526004016113f39291906139bb565b602060405180830381865afa158015611410573d6000803e3d6000fd5b505050506040513d601f19601f8201168201806040525081019061143491906139f9565b5b61147657336040517fede71dcc00000000000000000000000000000000000000000000000000000000815260040161146d9190613661565b60405180910390fd5b5b6114818383611cef565b5b505050565b81611491816118d6565b6114d0576040517f08c379a00000000000000000000000000000000000000000000000000000000081526004016114c790613924565b60405180910390fd5b816114e26114dc611b37565b8561057f565b1015611523576040517f08c379a000000000000000000000000000000000000000000000000000000000815260040161151a90613d5f565b60405180910390fd5b81600a600085815260200190815260200160002060040160008282546115499190613d7f565b9250508190555061156261155b611b37565b8484611d05565b505050565b6000600160008473ffffffffffffffffffffffffffffffffffffffff1673ffffffffffffffffffffffffffffffffffffffff16815260200190815260200160002060008373ffffffffffffffffffffffffffffffffffffffff1673ffffffffffffffffffffffffffffffffffffffff16815260200190815260200160002060009054906101000a900460ff16905092915050565b60075481565b8460006daaeb6d7670e522a718067333cd4e73ffffffffffffffffffffffffffffffffffffffff163b11156117d3573373ffffffffffffffffffffffffffffffffffffffff168173ffffffffffffffffffffffffffffffffffffffff1603611675576116708686868686611f4b565b6117e1565b6daaeb6d7670e522a718067333cd4e73ffffffffffffffffffffffffffffffffffffffff1663c617113430336040518363ffffffff1660e01b81526004016116be9291906139bb565b602060405180830381865afa1580156116db573d6000803e3d6000fd5b505050506040513d601f19601f820116820180604052508101906116ff91906139f9565b801561179157506daaeb6d7670e522a718067333cd4e73ffffffffffffffffffffffffffffffffffffffff1663c617113430836040518363ffffffff1660e01b815260040161174f9291906139bb565b602060405180830381865afa15801561176c573d6000803e3d6000fd5b505050506040513d601f19601f8201168201806040525081019061179091906139f9565b5b6117d257336040517fede71dcc0000000000000000000000000000000000000000000000000000000081526004016117c99190613661565b60405180910390fd5b5b6117e08686868686611f4b565b5b505050505050565b6117f16118f9565b600073ffffffffffffffffffffffffffffffffffffffff168173ffffffffffffffffffffffffffffffffffffffff1603611860576040517f08c379a000000000000000000000000000000000000000000000000000000000815260040161185790613e25565b60405180910390fd5b61186981611a71565b50565b60007f01ffc9a7000000000000000000000000000000000000000000000000000000007bffffffffffffffffffffffffffffffffffffffffffffffffffffffff1916827bffffffffffffffffffffffffffffffffffffffffffffffffffffffff1916149050919050565b600080600a60008481526020019081526020016000206002015414159050919050565b611901611b37565b73ffffffffffffffffffffffffffffffffffffffff1661191f611018565b73ffffffffffffffffffffffffffffffffffffffff1614611975576040517f08c379a000000000000000000000000000000000000000000000000000000000815260040161196c90613e91565b60405180910390fd5b565b61197f611b37565b73ffffffffffffffffffffffffffffffffffffffff168573ffffffffffffffffffffffffffffffffffffffff1614806119c557506119c4856119bf611b37565b611567565b5b611a04576040517f08c379a00000000000000000000000000000000000000000000000000000000081526004016119fb90613f23565b60405180910390fd5b611a118585858585611fec565b5050505050565b600260045403611a5d576040517f08c379a0000000000000000000000000000000000000000000000000000000008152600401611a5490613f8f565b60405180910390fd5b6002600481905550565b6001600481905550565b6000600360009054906101000a900473ffffffffffffffffffffffffffffffffffffffff16905081600360006101000a81548173ffffffffffffffffffffffffffffffffffffffff021916908373ffffffffffffffffffffffffffffffffffffffff1602179055508173ffffffffffffffffffffffffffffffffffffffff168173ffffffffffffffffffffffffffffffffffffffff167f8be0079c531659141344cd1fd0a4f28419497f9722a3daafe3b4186f6b6457e060405160405180910390a35050565b600033905090565b600073ffffffffffffffffffffffffffffffffffffffff168473ffffffffffffffffffffffffffffffffffffffff1603611bae576040517f08c379a0000000000000000000000000000000000000000000000000000000008152600401611ba590614021565b60405180910390fd5b6000611bb8611b37565b90506000611bc58561230d565b90506000611bd28561230d565b9050611be383600089858589612387565b8460008088815260200190815260200160002060008973ffffffffffffffffffffffffffffffffffffffff1673ffffffffffffffffffffffffffffffffffffffff1681526020019081526020016000206000828254611c429190613b99565b925050819055508673ffffffffffffffffffffffffffffffffffffffff16600073ffffffffffffffffffffffffffffffffffffffff168473ffffffffffffffffffffffffffffffffffffffff167fc3d58168c5ae7397731d063d5bbf3d657854427343f4c083240f7aacaa2d0f628989604051611cc0929190614041565b60405180910390a4611cd78360008985858961238f565b611ce683600089898989612397565b50505050505050565b611d01611cfa611b37565b838361256e565b5050565b600073ffffffffffffffffffffffffffffffffffffffff168373ffffffffffffffffffffffffffffffffffffffff1603611d74576040517f08c379a0000000000000000000000000000000000000000000000000000000008152600401611d6b906140dc565b60405180910390fd5b6000611d7e611b37565b90506000611d8b8461230d565b90506000611d988461230d565b9050611db883876000858560405180602001604052806000815250612387565b600080600087815260200190815260200160002060008873ffffffffffffffffffffffffffffffffffffffff1673ffffffffffffffffffffffffffffffffffffffff16815260200190815260200160002054905084811015611e4f576040517f08c379a0000000000000000000000000000000000000000000000000000000008152600401611e469061416e565b60405180910390fd5b84810360008088815260200190815260200160002060008973ffffffffffffffffffffffffffffffffffffffff1673ffffffffffffffffffffffffffffffffffffffff16815260200190815260200160002081905550600073ffffffffffffffffffffffffffffffffffffffff168773ffffffffffffffffffffffffffffffffffffffff168573ffffffffffffffffffffffffffffffffffffffff167fc3d58168c5ae7397731d063d5bbf3d657854427343f4c083240f7aacaa2d0f628989604051611f1c929190614041565b60405180910390a4611f428488600086866040518060200160405280600081525061238f565b50505050505050565b611f53611b37565b73ffffffffffffffffffffffffffffffffffffffff168573ffffffffffffffffffffffffffffffffffffffff161480611f995750611f9885611f93611b37565b611567565b5b611fd8576040517f08c379a0000000000000000000000000000000000000000000000000000000008152600401611fcf90613f23565b60405180910390fd5b611fe585858585856126da565b5050505050565b8151835114612030576040517f08c379a000000000000000000000000000000000000000000000000000000000815260040161202790614200565b60405180910390fd5b600073ffffffffffffffffffffffffffffffffffffffff168473ffffffffffffffffffffffffffffffffffffffff160361209f576040517f08c379a000000000000000000000000000000000000000000000000000000000815260040161209690614292565b60405180910390fd5b60006120a9611b37565b90506120b9818787878787612387565b60005b845181101561226a5760008582815181106120da576120d9613afe565b5b6020026020010151905060008583815181106120f9576120f8613afe565b5b60200260200101519050600080600084815260200190815260200160002060008b73ffffffffffffffffffffffffffffffffffffffff1673ffffffffffffffffffffffffffffffffffffffff1681526020019081526020016000205490508181101561219a576040517f08c379a000000000000000000000000000000000000000000000000000000000815260040161219190614324565b60405180910390fd5b81810360008085815260200190815260200160002060008c73ffffffffffffffffffffffffffffffffffffffff1673ffffffffffffffffffffffffffffffffffffffff168152602001908152602001600020819055508160008085815260200190815260200160002060008b73ffffffffffffffffffffffffffffffffffffffff1673ffffffffffffffffffffffffffffffffffffffff168152602001908152602001600020600082825461224f9190613b99565b925050819055505050508061226390613973565b90506120bc565b508473ffffffffffffffffffffffffffffffffffffffff168673ffffffffffffffffffffffffffffffffffffffff168273ffffffffffffffffffffffffffffffffffffffff167f4a39dc06d4c0dbc64b70af90fd698a233a518aa5d07e595d983b8c0526c8f7fb87876040516122e1929190614344565b60405180910390a46122f781878787878761238f565b612305818787878787612975565b505050505050565b60606000600167ffffffffffffffff81111561232c5761232b612f2a565b5b60405190808252806020026020018201604052801561235a5781602001602082028036833780820191505090505b509050828160008151811061237257612371613afe565b5b60200260200101818152505080915050919050565b505050505050565b505050505050565b6123b68473ffffffffffffffffffffffffffffffffffffffff16612b4c565b15612566578373ffffffffffffffffffffffffffffffffffffffff1663f23a6e6187878686866040518663ffffffff1660e01b81526004016123fc9594939291906143d0565b6020604051808303816000875af192505050801561243857506040513d601f19601f82011682018060405250810190612435919061443f565b60015b6124dd57612444614479565b806308c379a0036124a0575061245861449b565b8061246357506124a2565b806040517f08c379a00000000000000000000000000000000000000000000000000000000081526004016124979190612e78565b60405180910390fd5b505b6040517f08c379a00000000000000000000000000000000000000000000000000000000081526004016124d49061459d565b60405180910390fd5b63f23a6e6160e01b7bffffffffffffffffffffffffffffffffffffffffffffffffffffffff1916817bffffffffffffffffffffffffffffffffffffffffffffffffffffffff191614612564576040517f08c379a000000000000000000000000000000000000000000000000000000000815260040161255b9061462f565b60405180910390fd5b505b505050505050565b8173ffffffffffffffffffffffffffffffffffffffff168373ffffffffffffffffffffffffffffffffffffffff16036125dc576040517f08c379a00000000000000000000000000000000000000000000000000000000081526004016125d3906146c1565b60405180910390fd5b80600160008573ffffffffffffffffffffffffffffffffffffffff1673ffffffffffffffffffffffffffffffffffffffff16815260200190815260200160002060008473ffffffffffffffffffffffffffffffffffffffff1673ffffffffffffffffffffffffffffffffffffffff16815260200190815260200160002060006101000a81548160ff0219169083151502179055508173ffffffffffffffffffffffffffffffffffffffff168373ffffffffffffffffffffffffffffffffffffffff167f17307eab39ab6107e8899845ad3d59bd9653f200f220920489ca2b5937696c31836040516126cd9190612dc4565b60405180910390a3505050565b600073ffffffffffffffffffffffffffffffffffffffff168473ffffffffffffffffffffffffffffffffffffffff1603612749576040517f08c379a000000000000000000000000000000000000000000000000000000000815260040161274090614292565b60405180910390fd5b6000612753611b37565b905060006127608561230d565b9050600061276d8561230d565b905061277d838989858589612387565b600080600088815260200190815260200160002060008a73ffffffffffffffffffffffffffffffffffffffff1673ffffffffffffffffffffffffffffffffffffffff16815260200190815260200160002054905085811015612814576040517f08c379a000000000000000000000000000000000000000000000000000000000815260040161280b90614324565b60405180910390fd5b85810360008089815260200190815260200160002060008b73ffffffffffffffffffffffffffffffffffffffff1673ffffffffffffffffffffffffffffffffffffffff168152602001908152602001600020819055508560008089815260200190815260200160002060008a73ffffffffffffffffffffffffffffffffffffffff1673ffffffffffffffffffffffffffffffffffffffff16815260200190815260200160002060008282546128c99190613b99565b925050819055508773ffffffffffffffffffffffffffffffffffffffff168973ffffffffffffffffffffffffffffffffffffffff168573ffffffffffffffffffffffffffffffffffffffff167fc3d58168c5ae7397731d063d5bbf3d657854427343f4c083240f7aacaa2d0f628a8a604051612946929190614041565b60405180910390a461295c848a8a86868a61238f565b61296a848a8a8a8a8a612397565b505050505050505050565b6129948473ffffffffffffffffffffffffffffffffffffffff16612b4c565b15612b44578373ffffffffffffffffffffffffffffffffffffffff1663bc197c8187878686866040518663ffffffff1660e01b81526004016129da9594939291906146e1565b6020604051808303816000875af1925050508015612a1657506040513d601f19601f82011682018060405250810190612a13919061443f565b60015b612abb57612a22614479565b806308c379a003612a7e5750612a3661449b565b80612a415750612a80565b806040517f08c379a0000000000000000000000000000000000000000000000000000000008152600401612a759190612e78565b60405180910390fd5b505b6040517f08c379a0000000000000000000000000000000000000000000000000000000008152600401612ab29061459d565b60405180910390fd5b63bc197c8160e01b7bffffffffffffffffffffffffffffffffffffffffffffffffffffffff1916817bffffffffffffffffffffffffffffffffffffffffffffffffffffffff191614612b42576040517f08c379a0000000000000000000000000000000000000000000000000000000008152600401612b399061462f565b60405180910390fd5b505b505050505050565b6000808273ffffffffffffffffffffffffffffffffffffffff163b119050919050565b828054612b7b90613881565b90600052602060002090601f016020900481019282612b9d5760008555612be4565b82601f10612bb657805160ff1916838001178555612be4565b82800160010185558215612be4579182015b82811115612be3578251825591602001919060010190612bc8565b5b509050612bf19190612bf5565b5090565b5b80821115612c0e576000816000905550600101612bf6565b5090565b6000604051905090565b600080fd5b600080fd5b600073ffffffffffffffffffffffffffffffffffffffff82169050919050565b6000612c5182612c26565b9050919050565b612c6181612c46565b8114612c6c57600080fd5b50565b600081359050612c7e81612c58565b92915050565b6000819050919050565b612c9781612c84565b8114612ca257600080fd5b50565b600081359050612cb481612c8e565b92915050565b60008060408385031215612cd157612cd0612c1c565b5b6000612cdf85828601612c6f565b9250506020612cf085828601612ca5565b9150509250929050565b612d0381612c84565b82525050565b6000602082019050612d1e6000830184612cfa565b92915050565b60007fffffffff0000000000000000000000000000000000000000000000000000000082169050919050565b612d5981612d24565b8114612d6457600080fd5b50565b600081359050612d7681612d50565b92915050565b600060208284031215612d9257612d91612c1c565b5b6000612da084828501612d67565b91505092915050565b60008115159050919050565b612dbe81612da9565b82525050565b6000602082019050612dd96000830184612db5565b92915050565b600081519050919050565b600082825260208201905092915050565b60005b83811015612e19578082015181840152602081019050612dfe565b83811115612e28576000848401525b50505050565b6000601f19601f8301169050919050565b6000612e4a82612ddf565b612e548185612dea565b9350612e64818560208601612dfb565b612e6d81612e2e565b840191505092915050565b60006020820190508181036000830152612e928184612e3f565b905092915050565b600060208284031215612eb057612eaf612c1c565b5b6000612ebe84828501612ca5565b91505092915050565b612ed081612da9565b8114612edb57600080fd5b50565b600081359050612eed81612ec7565b92915050565b600060208284031215612f0957612f08612c1c565b5b6000612f1784828501612ede565b91505092915050565b600080fd5b600080fd5b7f4e487b7100000000000000000000000000000000000000000000000000000000600052604160045260246000fd5b612f6282612e2e565b810181811067ffffffffffffffff82111715612f8157612f80612f2a565b5b80604052505050565b6000612f94612c12565b9050612fa08282612f59565b919050565b600067ffffffffffffffff821115612fc057612fbf612f2a565b5b612fc982612e2e565b9050602081019050919050565b82818337600083830152505050565b6000612ff8612ff384612fa5565b612f8a565b90508281526020810184848401111561301457613013612f25565b5b61301f848285612fd6565b509392505050565b600082601f83011261303c5761303b612f20565b5b813561304c848260208601612fe5565b91505092915050565b6000806000806080858703121561306f5761306e612c1c565b5b600085013567ffffffffffffffff81111561308d5761308c612c21565b5b61309987828801613027565b945050602085013567ffffffffffffffff8111156130ba576130b9612c21565b5b6130c687828801613027565b93505060406130d787828801612ca5565b92505060606130e887828801612ca5565b91505092959194509250565b600067ffffffffffffffff82111561310f5761310e612f2a565b5b602082029050602081019050919050565b600080fd5b6000613138613133846130f4565b612f8a565b9050808382526020820190506020840283018581111561315b5761315a613120565b5b835b8181101561318457806131708882612ca5565b84526020840193505060208101905061315d565b5050509392505050565b600082601f8301126131a3576131a2612f20565b5b81356131b3848260208601613125565b91505092915050565b600067ffffffffffffffff8211156131d7576131d6612f2a565b5b6131e082612e2e565b9050602081019050919050565b60006132006131fb846131bc565b612f8a565b90508281526020810184848401111561321c5761321b612f25565b5b613227848285612fd6565b509392505050565b600082601f83011261324457613243612f20565b5b81356132548482602086016131ed565b91505092915050565b600080600080600060a0868803121561327957613278612c1c565b5b600061328788828901612c6f565b955050602061329888828901612c6f565b945050604086013567ffffffffffffffff8111156132b9576132b8612c21565b5b6132c58882890161318e565b935050606086013567ffffffffffffffff8111156132e6576132e5612c21565b5b6132f28882890161318e565b925050608086013567ffffffffffffffff81111561331357613312612c21565b5b61331f8882890161322f565b9150509295509295909350565b600060c08201905081810360008301526133468189612e3f565b9050818103602083015261335a8188612e3f565b90506133696040830187612cfa565b6133766060830186612cfa565b6133836080830185612cfa565b61339060a0830184612cfa565b979650505050505050565b600067ffffffffffffffff8211156133b6576133b5612f2a565b5b602082029050602081019050919050565b60006133da6133d58461339b565b612f8a565b905080838252602082019050602084028301858111156133fd576133fc613120565b5b835b8181101561342657806134128882612c6f565b8452602084019350506020810190506133ff565b5050509392505050565b600082601f83011261344557613444612f20565b5b81356134558482602086016133c7565b91505092915050565b6000806040838503121561347557613474612c1c565b5b600083013567ffffffffffffffff81111561349357613492612c21565b5b61349f85828601613430565b925050602083013567ffffffffffffffff8111156134c0576134bf612c21565b5b6134cc8582860161318e565b9150509250929050565b600081519050919050565b600082825260208201905092915050565b6000819050602082019050919050565b61350b81612c84565b82525050565b600061351d8383613502565b60208301905092915050565b6000602082019050919050565b6000613541826134d6565b61354b81856134e1565b9350613556836134f2565b8060005b8381101561358757815161356e8882613511565b975061357983613529565b92505060018101905061355a565b5085935050505092915050565b600060208201905081810360008301526135ae8184613536565b905092915050565b600080604083850312156135cd576135cc612c1c565b5b60006135db85828601612ca5565b92505060206135ec85828601612ca5565b9150509250929050565b6000806040838503121561360d5761360c612c1c565b5b600061361b85828601612ca5565b925050602083013567ffffffffffffffff81111561363c5761363b612c21565b5b61364885828601613027565b9150509250929050565b61365b81612c46565b82525050565b60006020820190506136766000830184613652565b92915050565b6000806040838503121561369357613692612c1c565b5b60006136a185828601612c6f565b92505060206136b285828601612ede565b9150509250929050565b600080604083850312156136d3576136d2612c1c565b5b60006136e185828601612c6f565b92505060206136f285828601612c6f565b9150509250929050565b600080600080600060a0868803121561371857613717612c1c565b5b600061372688828901612c6f565b955050602061373788828901612c6f565b945050604061374888828901612ca5565b935050606061375988828901612ca5565b925050608086013567ffffffffffffffff81111561377a57613779612c21565b5b6137868882890161322f565b9150509295509295909350565b6000602082840312156137a9576137a8612c1c565b5b60006137b784828501612c6f565b91505092915050565b7f455243313135353a2061646472657373207a65726f206973206e6f742061207660008201527f616c6964206f776e657200000000000000000000000000000000000000000000602082015250565b600061381c602a83612dea565b9150613827826137c0565b604082019050919050565b6000602082019050818103600083015261384b8161380f565b9050919050565b7f4e487b7100000000000000000000000000000000000000000000000000000000600052602260045260246000fd5b6000600282049050600182168061389957607f821691505b6020821081036138ac576138ab613852565b5b50919050565b7f546869732073747261696e20646f6573206e6f74206578697374207965742c2060008201527f636865636b206261636b206c6174657221000000000000000000000000000000602082015250565b600061390e603183612dea565b9150613919826138b2565b604082019050919050565b6000602082019050818103600083015261393d81613901565b9050919050565b7f4e487b7100000000000000000000000000000000000000000000000000000000600052601160045260246000fd5b600061397e82612c84565b91507fffffffffffffffffffffffffffffffffffffffffffffffffffffffffffffffff82036139b0576139af613944565b5b600182019050919050565b60006040820190506139d06000830185613652565b6139dd6020830184613652565b9392505050565b6000815190506139f381612ec7565b92915050565b600060208284031215613a0f57613a0e612c1c565b5b6000613a1d848285016139e4565b91505092915050565b600081905092915050565b50565b6000613a41600083613a26565b9150613a4c82613a31565b600082019050919050565b6000613a6282613a34565b9150819050919050565b7f455243313135353a206163636f756e747320616e6420696473206c656e67746860008201527f206d69736d617463680000000000000000000000000000000000000000000000602082015250565b6000613ac8602983612dea565b9150613ad382613a6c565b604082019050919050565b60006020820190508181036000830152613af781613abb565b9050919050565b7f4e487b7100000000000000000000000000000000000000000000000000000000600052603260045260246000fd5b7f54686520636f6e74726163742069732070617573656421000000000000000000600082015250565b6000613b63601783612dea565b9150613b6e82613b2d565b602082019050919050565b60006020820190508181036000830152613b9281613b56565b9050919050565b6000613ba482612c84565b9150613baf83612c84565b9250827fffffffffffffffffffffffffffffffffffffffffffffffffffffffffffffffff03821115613be457613be3613944565b5b828201905092915050565b7f4d617820737570706c7920666f7220746869732073747261696e20776f756c6460008201527f2062652065786365656465642100000000000000000000000000000000000000602082015250565b6000613c4b602d83612dea565b9150613c5682613bef565b604082019050919050565b60006020820190508181036000830152613c7a81613c3e565b9050919050565b7f496e73756666696369656e742066756e64732100000000000000000000000000600082015250565b6000613cb7601383612dea565b9150613cc282613c81565b602082019050919050565b60006020820190508181036000830152613ce681613caa565b9050919050565b7f4275726e7420616d6f756e7420776f756c64206578636565642062616c616e6360008201527f6500000000000000000000000000000000000000000000000000000000000000602082015250565b6000613d49602183612dea565b9150613d5482613ced565b604082019050919050565b60006020820190508181036000830152613d7881613d3c565b9050919050565b6000613d8a82612c84565b9150613d9583612c84565b925082821015613da857613da7613944565b5b828203905092915050565b7f4f776e61626c653a206e6577206f776e657220697320746865207a65726f206160008201527f6464726573730000000000000000000000000000000000000000000000000000602082015250565b6000613e0f602683612dea565b9150613e1a82613db3565b604082019050919050565b60006020820190508181036000830152613e3e81613e02565b9050919050565b7f4f776e61626c653a2063616c6c6572206973206e6f7420746865206f776e6572600082015250565b6000613e7b602083612dea565b9150613e8682613e45565b602082019050919050565b60006020820190508181036000830152613eaa81613e6e565b9050919050565b7f455243313135353a2063616c6c6572206973206e6f7420746f6b656e206f776e60008201527f6572206f7220617070726f766564000000000000000000000000000000000000602082015250565b6000613f0d602e83612dea565b9150613f1882613eb1565b604082019050919050565b60006020820190508181036000830152613f3c81613f00565b9050919050565b7f5265656e7472616e637947756172643a207265656e7472616e742063616c6c00600082015250565b6000613f79601f83612dea565b9150613f8482613f43565b602082019050919050565b60006020820190508181036000830152613fa881613f6c565b9050919050565b7f455243313135353a206d696e7420746f20746865207a65726f2061646472657360008201527f7300000000000000000000000000000000000000000000000000000000000000602082015250565b600061400b602183612dea565b915061401682613faf565b604082019050919050565b6000602082019050818103600083015261403a81613ffe565b9050919050565b60006040820190506140566000830185612cfa565b6140636020830184612cfa565b9392505050565b7f455243313135353a206275726e2066726f6d20746865207a65726f206164647260008201527f6573730000000000000000000000000000000000000000000000000000000000602082015250565b60006140c6602383612dea565b91506140d18261406a565b604082019050919050565b600060208201905081810360008301526140f5816140b9565b9050919050565b7f455243313135353a206275726e20616d6f756e7420657863656564732062616c60008201527f616e636500000000000000000000000000000000000000000000000000000000602082015250565b6000614158602483612dea565b9150614163826140fc565b604082019050919050565b600060208201905081810360008301526141878161414b565b9050919050565b7f455243313135353a2069647320616e6420616d6f756e7473206c656e6774682060008201527f6d69736d61746368000000000000000000000000000000000000000000000000602082015250565b60006141ea602883612dea565b91506141f58261418e565b604082019050919050565b60006020820190508181036000830152614219816141dd565b9050919050565b7f455243313135353a207472616e7366657220746f20746865207a65726f20616460008201527f6472657373000000000000000000000000000000000000000000000000000000602082015250565b600061427c602583612dea565b915061428782614220565b604082019050919050565b600060208201905081810360008301526142ab8161426f565b9050919050565b7f455243313135353a20696e73756666696369656e742062616c616e636520666f60008201527f72207472616e7366657200000000000000000000000000000000000000000000602082015250565b600061430e602a83612dea565b9150614319826142b2565b604082019050919050565b6000602082019050818103600083015261433d81614301565b9050919050565b6000604082019050818103600083015261435e8185613536565b905081810360208301526143728184613536565b90509392505050565b600081519050919050565b600082825260208201905092915050565b60006143a28261437b565b6143ac8185614386565b93506143bc818560208601612dfb565b6143c581612e2e565b840191505092915050565b600060a0820190506143e56000830188613652565b6143f26020830187613652565b6143ff6040830186612cfa565b61440c6060830185612cfa565b818103608083015261441e8184614397565b90509695505050505050565b60008151905061443981612d50565b92915050565b60006020828403121561445557614454612c1c565b5b60006144638482850161442a565b91505092915050565b60008160e01c9050919050565b600060033d11156144985760046000803e61449560005161446c565b90505b90565b600060443d10614528576144ad612c12565b60043d036004823e80513d602482011167ffffffffffffffff821117156144d5575050614528565b808201805167ffffffffffffffff8111156144f35750505050614528565b80602083010160043d038501811115614510575050505050614528565b61451f82602001850186612f59565b82955050505050505b90565b7f455243313135353a207472616e7366657220746f206e6f6e2d4552433131353560008201527f526563656976657220696d706c656d656e746572000000000000000000000000602082015250565b6000614587603483612dea565b91506145928261452b565b604082019050919050565b600060208201905081810360008301526145b68161457a565b9050919050565b7f455243313135353a204552433131353552656365697665722072656a6563746560008201527f6420746f6b656e73000000000000000000000000000000000000000000000000602082015250565b6000614619602883612dea565b9150614624826145bd565b604082019050919050565b600060208201905081810360008301526146488161460c565b9050919050565b7f455243313135353a2073657474696e6720617070726f76616c2073746174757360008201527f20666f722073656c660000000000000000000000000000000000000000000000602082015250565b60006146ab602983612dea565b91506146b68261464f565b604082019050919050565b600060208201905081810360008301526146da8161469e565b9050919050565b600060a0820190506146f66000830188613652565b6147036020830187613652565b81810360408301526147158186613536565b905081810360608301526147298185613536565b9050818103608083015261473d8184614397565b9050969550505050505056fea264697066735822122095650782a235fc66f37a4f47d1c17d1a1771c5d138a89f7f320b999673ead8c464736f6c634300080d0033",
    "linkReferences": {},
    "deployedLinkReferences": {}
}